:100000000C94EF0E0C94170F0C94170F0C94170F01
:100010000C94170F0C94170F0C94170F0C94170FC8
:100020000C94170F0C94170F0C94170F0C94170FB8
:100030000C94170F0C94170F0C94170F0C94170FA8
:100040000C94FA240C94170F0C94170F0C94170FA0
:100050000C94170F0C94170F0C94170F0C94170F88
:100060000C9444250C94170F0000000006000100BA
:100070000002120803EF050006060801F00A000D51
:10008000100D00F124000B140D01EF4000141115A8
:1000900001F06B000E111001F0890002060501F05D
:1000A0008B0005170802EF9A0005170801EFA90059
:1000B00007070901EFB0000A0B0E02F6BE000206A8
:1000C0000702FFC00006020801F9C2000202060290
:1000D000FFC30007120700EFD3000B110D01F0EB77
:1000E0000005110D03F0F6000B110D01F00E010BD0
:1000F000110D01F026010B110D01F03E010B110D48
:1001000001F056010B110D01F06E010B110D01F004
:1001100086010B110D01F09E010B110D01F0B601CE
:10012000020D0602F4BA0102100602F5BE010C0C23
:100130000E01F5D0010C060E01F8D9010C0C0E01D0
:10014000F5EB010A120D02EF020216151801EF3C41
:100150000210121000EF60020D121002EF7E020F6B
:10016000121101EFA0020E121102EFC0020C120FC9
:1001700002EFDB020B120E02EFF40210121201EF7B
:1001800018030D121102EF360302120702EF3B03B0
:1001900009120D01EF50030E121002EF70030A1244
:1001A0000E02EF870310121402EFAB030D121202BE
:1001B000EFC90311121301EFF0030C121002EF0B41
:1001C0000411131301EF34040E121102EF54040E44
:1001D000121001EF74040C120F01EF8F040D1211B5
:1001E00002EFAD040F120F00EFCF0416121600EF4E
:1001F00001050F121000EF230510121000EF470544
:100200000D120F01EF650504170702EF71050712C4
:100210000700EF810504170701EF8D0509090B01A0
:10022000F098050F010DFF049A0505040601EF9DE6
:10023000050C0D0D01F4B1050C120D01EFCC050AF2
:100240000D0C01F4DD050B120D01EFF6050B0D0D84
:1002500001F4080605120701EF14060B120D01F454
:100260002D060A120D01EF440602120502EF49069F
:1002700004170600EF55060B120C01EF6E06021272
:100280000501EF7306110D1301F48F060A0D0D0120
:10029000F4A0060B0D0D01F4B2060C110D01F4CC07
:1002A000060B110D01F4E406060D0801F4EE060A32
:1002B0000D0C01F4FF0605100701F109070A0D0DE9
:1002C00001F41A070C0D0C00F42E07110D1100F4A7
:1002D0004A070B0D0B00F45C070B120B00F47507BB
:1002E0000A0D0C01F4860705170801EF95070217A0
:1002F0000602EF9B0705170802EFAA070A050C0183
:10030000F6FFFFFFF0F0CF3CF38A200630310318F0
:1003100018C7FFBFFC31031818C7FFBFFC31011815
:1003200018C0C606300403E1FF726C4788F107204D
:100330007E03F017023C4788F11B267FC3E01002C2
:1003400000000603C0407E0C0E7080C3180C310004
:10035000E73007E6003C40000C7C008FE019C70145
:1003600018303183021C7040FE0407C00F007E036A
:100370009C0C3030C0E701F803803E01CC6E19B010
:100380007CC0F303CE1F9FE61E1CFFA0088C6631C5
:1003900098C6318C63086308610C208218C318C3A7
:1003A00018C6318C623188C4620010235BE38D91E2
:1003B000000C0300C030FFFFF0C0300C0300C0F59C
:1003C00060FFF0F0020C1020C1020C1020C1020CE2
:1003D0001020C1001F07F1C7306E0F80F01E03C050
:1003E000780F01E03C0EC19C71FC1F0008CFFF8C10
:1003F0006318C6318C63181F0FF987607C0600C034
:10040000180701C0F0781C0600803007FFFFE03FAE
:100410000FF387606C0C0180707C0F801801803CAA
:100420000780D873FC1F000180700E03C0D81B0624
:10043000618C218C33067FFFFE0300600C01803F3E
:10044000CFF980300600DE1FE70E00E00C0180309F
:100450000781F873FC1F000F07F9C3307401803364
:10046000C7FEF0DC1F01E03C06C1DC71FC1F00FF91
:10047000FFFC010060180200C0300601803004015A
:10048000803006018030001F07F1C730660CC18C38
:1004900061FC3F8E3B01E03C0780D831FC1F001F10
:1004A00007F1C7706C0780F01E0761EFFC798030A0
:1004B00005819873FC1E00F00003C0F0000F560089
:1004C000000701E0F83C0F00E007C00F003C00F01F
:1004D00001FFFFFF000000FFFFFF000E007801F0AA
:1004E00007C00F00701E0F03C0F008001F1FEE1B97
:1004F00003C0C0300C060381C0E0300C03000000D4
:100500000C030000FE000FFE00F03E07003C380028
:1005100030C1E0660FD9D861C3C3070F1C1C3C6013
:1005200060F18183C6061B1838EE71E718FDF8717B
:10053000E7C0E00001E00001FFC001FC0003C003D0
:10054000C003C007E0066006600E700C300C301C63
:100550003818181FF83FFC301C300C700E60066015
:1005600006FFC7FF3019806C03601B00D80CFFC763
:10057000FF300D803C01E00F007806FFF7FE00071A
:10058000E03FF0E0738066006C0030006000C00166
:10059000800300060006006C00DC031E0E1FF80F2F
:1005A000C0FF83FF8C07300EC01B007C00F003C02F
:1005B0000F003C00F003C01F006C03B01CFFE3FF02
:1005C00000FFFFFFC00C00C00C00C00C00FFEFFEDE
:1005D000C00C00C00C00C00C00FFFFFFFFFFFF00BD
:1005E000600C0180300600FFDFFB00600C018030F2
:1005F0000600C0180007F01FFC3C1E70066003E0F8
:1006000000C000C000C07FC07FC003C003600360A3
:1006100007300F3C1F1FFB07E1C01E00F007803CA6
:1006200001E00F007803FFFFFFF007803C01E00FBF
:10063000007803C01E00C0FFFFFFFFF00180C06014
:1006400030180C06030180C0603C1E0F07C77F1FD7
:1006500000C03B01CC0E3070C3831C0CE03380DE45
:1006600003DC0E383060C1C3038C06301CC03B0075
:1006700060C0300C0300C0300C0300C0300C03001D
:10068000C0300C0300FFFFF0E007E007F00FF00FB1
:10069000D00FD81BD81BD81BCC33CC33CC33C6637C
:1006A000C663C663C3C3C3C3C3C3C183E01F00FC27
:1006B00007E03D81EE0F3079C3C61E18F0E7833C9A
:1006C0001DE06F01F80FC03E01C003E00FFC0F07F3
:1006D0008600C60033001B00078003C001E000F065
:1006E0000078003600330018C018783C1FFC03F86F
:1006F00000FF8FFEC06C03C03C03C03C07FFEFFC53
:10070000C00C00C00C00C00C00C00C0003E00FFCCB
:100710000F078600C60033001B00078003C001E0FE
:1007200000F00078003600330198C0FC783C1FFFD1
:1007300003F9800040FFC3FFCC03B006C01B006C70
:1007400001B00CFFE3FFCC03B006C01B006C01B08E
:1007500006C01B00700FE07FC3839C07600D8006FE
:10076000001E003F803FC00F8007C00F003E00DE2C
:100770000E3FF03F80FFFFFF0600600600600600AE
:10078000600600600600600600600600600600600B
:10079000C01E00F007803C01E00F007803C01E007F
:1007A000F007803C01E00F80EE0E3FE07C00600629
:1007B000C01DC031806301C70306060C1C1C301825
:1007C0006031C073006600DC01F001E003C0070087
:1007D000E0301D80E0760781D81E06707C18C1B01D
:1007E000E30CC38C330C38C6306718C198670661B8
:1007F000D81D83603C0D80F03E03C0700F01C0180F
:100800000700700E6038E060E1C0C301CC01F80160
:10081000E0038007801F003300E70386060E1C0EEE
:10082000700CC01C6006700E301C38181C380C3060
:100830000E70066003C003C001800180018001804A
:100840000180018001800180FFFFFFC00E00E00EEB
:10085000006007007007003003803803801801C073
:100860001C00FFFFFFC0FFCCCCCCCCCCCCCCCCCC84
:10087000CFF08181020604081810206040818102B7
:100880000604FF3333333333333333333FF00C0E4B
:100890000586C321198C83C180FFFEE38C303F079E
:1008A000F8E1CC0C00C01C3FCF8CC0CC0CE3C7EFF0
:1008B0003C70C00C00C00C00C00CF8DFCF0EE07C18
:1008C00003C03C03C03C03E06F0EDFCCF81F0FE712
:1008D0001B83C0300C0300C038371CFE1F000060B3
:1008E0000C018030063CCFFB8FE0F80F01E03C07A5
:1008F00080F83B8F3F63CC1F07F1C7703C07FFFFB9
:10090000FE00C01C0DC31FE1F03BD8C67FEC63188E
:10091000C6318C63001E67FDC7F07C0780F01E03A4
:10092000C07C1DC79FB1E600C03E0E7FC7E0C0304F
:100930000C0300C033CDFBC7E0F03C0F03C0F03C1C
:100940000F03C0F030F03FFFFFF0330003333333C9
:10095000333333333FE0C0180300600C018330C6EB
:1009600030CC1B83F0770C618E30E60CC1D818FFB9
:10097000FFFFFFF0CF1F6FDFFC78FC183C0C1E065A
:100980000F03078183C0C1E060F03078183C0C1879
:10099000CF37EF1F83C0F03C0F03C0F03C0F03C004
:1009A000C01F07F1C7707C0780F01E03C07C1DC705
:1009B0001FC1F0CF8DFCF0EE06C03C03C03C03C06D
:1009C0003E07F0EFFCCF8C00C00C00C0001E67FD9E
:1009D000C7F07C0780F01E03C07C1DC79FF1E600B6
:1009E000C018030060CF7F38C30C30C30C30C03E4A
:1009F0001FEE1B00C03C07F03E01F03E1DFE3E0016
:100A00006319FFB18C6318C631E7C0F03C0F03C017
:100A1000F03C0F03C0F07E3DFB3CC0E06606606723
:100A20000C30C30C3981981981F00F00E00E00C121
:100A3000C1B0E1D870CC2C6636319B18CD98646C6F
:100A400016360F1A078F038380C1C060EE18C60CDC
:100A5000C1F01C0180781B0330C7306606E06C0DC6
:100A60008338630C630E60CC1B03603C0700E01806
:100A70000300E0780E00FFFFF0180C070381C06050
:100A800030180E03FFFFC019CC6318C631998618C1
:100A9000C6318C631C60FFFFFFFFFFFCC718C63127
:100AA0008C630C33318C6318C67300703E09E41FED
:100AB0000380000000000500010000020D0602F4A2
:100AC000040005040601F407000A0C0A00F51600EC
:100AD00009100A01F32800100D1001F442000B0D5B
:100AE0000C01F4540002040401F455000411060141
:100AF000F45E0004110601F4670005050701F46BBC
:100B00000006080B03F971000204050200720004DC
:100B1000010601FC730002010501007400050D05CA
:100B200000F47D00080D0A01F48A00040D0A03F4A4
:100B30009100090D0A01F4A000080D0A01F4AD00AE
:100B4000070D0A02F4B900090D0A01F4C800090DE5
:100B50000A01F4D700080D0A00F4E400090D0A01A7
:100B6000F4F300080D0A01F40001020A0501F7037D
:100B700001030C0501F8080109090B01F81301092B
:100B8000040B01FB180109090B01F82301090D0AE7
:100B900001F4320111101201F454010C0D0C00F497
:100BA00068010B0D0C01F47A010B0D0D01F48C01A1
:100BB0000B0D0D01F49E01090D0B01F4AD01080DA3
:100BC0000B01F4BA010C0D0E01F4CE010B0D0D0159
:100BD000F4E001020D0502F4E401070D0A01F4F04E
:100BE000010B0D0C01F40202080D0A01F40F020DB5
:100BF0000D0F01F425020B0D0D01F437020D0D0E42
:100C000001F44D020A0D0C01F45E020D0E0E01F40A
:100C100075020C0D0D01F489020A0D0C01F49A0203
:100C2000090D0B01F4A9020B0D0D01F4BB020B0D14
:100C30000C00F4CD02110D1100F4E9020C0D0C00B2
:100C4000F4FD020C0D0C00F411030A0D0B01F4224B
:100C50000303110501F42903050D0500F432030314
:100C6000110500F4390307070801F440030A010ADB
:100C70000003420304030500F44403090A0A01F7D0
:100C80005003090D0A01F45F03080A0901F769031B
:100C9000080D0A01F47603080A0A01F78003040D1F
:100CA0000501F48703080E0A01F79503080D0A01F0
:100CB000F4A203020D0401F4A60304110400F4AF2E
:100CC00003090D0901F4BE03020D0401F4C2030D72
:100CD0000A0F01F7D303080A0A01F7DD03080A0A1D
:100CE00001F7E703090D0A01F7F603080D0A01F7FA
:100CF0000304050A0601F70A04080A0901F71404A7
:100D0000040C0501F51A04080A0A01F72404090A6B
:100D10000900F730040D0A0D00F74104080A090024
:100D2000F74B04090E0900F75B04070A0901F76491
:100D30000404110601F46D0402110402F4720404A7
:100D4000110601F47B0407030901F9FFFFF8C0DE77
:100D5000F72009864191FF1304C320C8FF898261EF
:100D600090101F14DA3D1E8340781708F47A35334B
:100D7000F040203810EC20C620C640C6406C8039B8
:100D800000013C0277026304630477083C0E0660AE
:100D9000CC1981E0180F0336C2D8730631E3C4FEC4
:100DA00013266CCCCCC46623108C46633333326676
:100DB0004C80257EA50030C33F30C30CD6F0C00860
:100DC00044211084421108003C6642C3C3C3C3C31C
:100DD000C3C342663C113F33333333303E31B078C6
:100DE00030181C1C1C1818100807F83C66C3C303F5
:100DF000061C0703C3C3663C0C187162C9A346FEF8
:100E0000183060C07F2010080807F38C030180F0C1
:100E10006C63E01E3198780C06F38D83C1E0D06CD2
:100E200063E0FF030206040C081818181030303E67
:100E300031B0783C1B18F8C6C1E0F06C63E03C664A
:100E4000C2C3C3C3673B0303C2663CC00030C000DB
:100E50000064A00081C78E0C0780700E0180FF80A7
:100E6000001FF000700E01C0183871C080003E31C4
:100E7000B0783018183818180C0000018003F006FC
:100E80000E06018600661DBB31CF18C79863CC31B2
:100E9000E611B399CCF7860001800070400FE006A0
:100EA00000F00F009019819810830C3FC204606617
:100EB00006C030FF183303606C0D833FC606C07850
:100EC0000F01E06FF81F861981A03C0180300600F9
:100ED000C0680D831861F0FF183303603C0780F091
:100EE0001E03C0780F0360CFF0FFE030180C06033C
:100EF000FD80C06030180FF8FFC0C0C0C0C0FEC089
:100F0000C0C0C0C0C00F830E606603C00C00C1FC2F
:100F100003C0360360730F0F10C0780F01E03C0769
:100F200080FFFE03C0780F01E03C06FFFFFFC00614
:100F30000C183060C183078F1E2780C0D8330C6324
:100F40000CC1B83F0730C3186306606C0CC0C0C04A
:100F5000C0C0C0C0C0C0C0C0C0FFE03F01FC1FE0B7
:100F6000FD05EC6F637913CD9E6CF1478E3C71806B
:100F7000E07C0FC1E83D8798F11E33C3786F07E02E
:100F80007C0E0F8183180CC06C01E00F007803C049
:100F90001B01980C60C0F800FF306C0F03C0F06FAD
:100FA000F300C0300C0300C0000F8183180CC06C2C
:100FB00001E00F007803C01B01986C60C0FB0008C3
:100FC000FF8C0EC06C06C06C0CFF8C0EC06C06C093
:100FD0006C06C0703F186C0F03C01E01F00E00F0CD
:100FE0003C0D863F00FF86030180C06030180C0670
:100FF000030180C0C0780F01E03C0780F01E03C0F1
:10100000780F01B061F0C06C0D8110630C61046059
:10101000CC1901603C070060C18130E19870CC2898
:101020006626211330C8986C4C14340A1A0707033B
:101030000380818060630C30C1980F00E00600F0EF
:1010400019019830C60E6060C0360630C30C198195
:10105000D80F00600600600600600600FFC0603028
:101060000C060301C0603018060300FFC0FB6DB61C
:10107000DB6DB6E0841084108410841080EDB6DB44
:101080006DB6DBE03060A244D8A180FFC0C6307EE0
:1010900071B0C060F3DB0D86C73DC0C060301BCEB1
:1010A000360F0783C1E0F07C6DE03C66C3C0C0C072
:1010B000C0C3663C0303033B67C3C3C3C3C3C36767
:1010C0003B3C66C3C3FFC0C0C3663C366F66666602
:1010D00066603B67C3C3C3C3C3C3673B0303C67C2C
:1010E000C0C0C0DEE3C3C3C3C3C3C3C3C3C3FFFF26
:1010F000C03003333333333333E0C06030184C46F1
:101100006361F0EC6231986C30FFFFFFC0DEF71CCA
:10111000F0C7863C31E18F0C7863C31E18C0DEE354
:10112000C3C3C3C3C3C3C3C33C66C3C3C3C3C3C373
:10113000663CDE71B0783C1E0F0783E36F30180CFD
:10114000003B67C3C3C3C3C3C3673B030303DF31B0
:101150008C6318C6003EE3C0C0E03C07C3E37E6674
:10116000F666666667C3C3C3C3C3C3C3C3C77BC1D5
:10117000A098CC4221B0D0281C0C00C61E3891C4C7
:10118000CA66D316D0A6871C38C0C6004362361C78
:10119000181C3C266243C12198CC4261B0D0381C57
:1011A0000C0603010300FE0C30C1861820C1FC367A
:1011B00066666ECE66666630FFFFFFFFC0C6666677
:1011C0006737666666C061243800000000003E5B39
:1011D0004F5B3E3E6B4F6B3E1C3E7C3E1C183C7E84
:1011E0003C181C577D571C1C5E7F5E1C00183C1869
:1011F00000FFE7C3E7FF0018241800FFE7DBE7FF65
:1012000030483A060E2629792926407F05050740F1
:101210007F05253F5A3CE73C5A7F3E1C1C08081CB2
:101220001C3E7F14227F22145F5F005F5F06097FF0
:10123000017F006689956A606060606094A2FFA289
:101240009408047E040810207E201008082A1C0838
:10125000081C2A08081E101010100C1E0C1E0C3042
:10126000383E3830060E3E0E06000000000000003A
:101270005F00000007000700147F147F14242A7FFA
:101280002A122313086462364956205000080703C7
:1012900000001C2241000041221C002A1C7F1C2A45
:1012A00008083E0808008070300008080808080098
:1012B0000060600020100804023E5149453E004293
:1012C0007F400072494949462141494D3318141263
:1012D0007F1027454545393C4A494931412111098B
:1012E000073649494936464949291E00001400007D
:1012F0000040340000000814224114141414140097
:101300004122140802015909063E415D594E7C12E2
:1013100011127C7F494949363E414141227F41417A
:10132000413E7F494949417F090909013E414151F7
:10133000737F0808087F00417F41002040413F0142
:101340007F081422417F404040407F021C027F7F83
:101350000408107F3E4141413E7F090909063E4194
:1013600051215E7F09192946264949493203017FE7
:1013700001033F4040403F1F2040201F3F40384076
:101380003F631408146303047804036159494D430F
:10139000007F4141410204081020004141417F0487
:1013A000020102044040404040000307080020546E
:1013B0005478407F284444383844444428384444CE
:1013C000287F385454541800087E090218A4A49C9D
:1013D000787F0804047800447D40002040403D00B0
:1013E0007F1028440000417F40007C047804787C12
:1013F000080404783844444438FC18242418182479
:101400002418FC7C08040408485454542404043F61
:1014100044243C4040207C1C2040201C3C40304068
:101420003C44281028444C9090907C4464544C4494
:101430000008364100000077000000413608000235
:10144000010204023C2623263C1EA1A161123A405F
:1014500040207A38545455592155557941225454D5
:101460007842215554784020545579400C1E5272D0
:1014700012395555555939545454593955545458AD
:101480000000457C410002457D420001457C407DD5
:101490001211127DF0282528F07C54554500205467
:1014A000547C547C0A097F4932494949323A4444C0
:1014B000443A324A4848303A4141217A3A4240203F
:1014C00078009DA0A07D3D4242423D3D4040403DD0
:1014D0003C24FF2424487E4943662B2FFC2F2BFFFE
:1014E0000929F620C0887E09032054547941000060
:1014F000447D413048484A32384040227A007A0AD6
:101500000A727D0D19317D2629292F28262929299E
:101510002630484D402038080808080808080838D0
:101520002F10C8ACBA2F102834FA00007B00000836
:10153000142A142222142A14085500550055AA55BD
:10154000AA55AAFF55FF55FF000000FF001010101C
:10155000FF00141414FF001010FF00FF1010F01013
:10156000F0141414FC001414F700FF0000FF00FF37
:101570001414F404FC141417101F10101F101F145F
:1015800014141F00101010F0000000001F101010A5
:10159000101F10101010F010000000FF101010109D
:1015A0001010101010FF10000000FF140000FF00CA
:1015B000FF00001F10170000FC04F414141710178C
:1015C0001414F404F40000FF00F714141414141499
:1015D00014F700F7141414171410101F101F14140C
:1015E00014F4141010F010F000001F101F00000081
:1015F0001F14000000FC140000F010F01010FF1089
:10160000FF141414FF141010101F00000000F0103D
:10161000FFFFFFFFFFF0F0F0F0F0FFFFFF00000022
:101620000000FFFF0F0F0F0F0F3844443844FC4AEF
:101630004A4A347E02020606027E027E0263554951
:1016400041633844443C04407E201E2006027E0252
:101650000299A5E7A5991C2A492A1C4C7201724CD3
:10166000304A4D4D303048784830BC625A463D3E95
:10167000494949007E0101017E2A2A2A2A2A444436
:101680005F444440514A444040444A51400000FFB6
:101690000103E080FF000008086B6B083612362457
:1016A00036060F090F060000181800000010100081
:1016B0003040FF0101001F01011E00191D1712001B
:1016C0003C3C3C3C000000000000000000230026E1
:1016D00000290000000000250028002B0000000069
:1016E00008000201000003040700000000000000E1
:1016F0000011007F96290001007F9628003A0155CD
:10170000C0021010C10141C50400228040360168AA
:10171000B00100B102B011B40102B60302023BB73E
:1017200001C63A0155F704A9512C82C0020D0DC122
:10173000024300C20100C50400480048B40100B6DD
:101740000302023BE00F0F211C0B0E0849983809D9
:101750001103141000E10F0F2F2B0C0E06477637E4
:10176000071104231E00B00100B30402000000B4FE
:101770000100D003074218D103000710D202010272
:10178000D3020102D4020102C005123B000211C1C2
:1017900003101088C50103C60102C80C003236458B
:1017A0000616377577540C00CC0100F603010100D2
:1017B000CF03008130ED0464031281E803851078C3
:1017C000CB05392C003402F70120EA020000B001F9
:1017D00000B102001BB40100C00121C10111C5020A
:1017E0003F3CC701B5360148F20100260101E00F78
:1017F0000F26240B0E0954A8460C17090F0700E109
:101800000F00191B0410072A473903060630380F4A
:10181000360100B00100C10410100202C0060035FC
:1018200000000102C50104D2020104CA0100EA015C
:1018300080B903FF83577F967F96B60125C0065077
:1018400050013C1E08B4070240002A2A0D787F018F
:10185000F20B1616030808080810041616FD0311EB
:101860000235B2050C0C003333B70135BB012BC078
:101870000104C20201FFC30111C40120C6010FD03F
:1018800002A4A1E00ED000050E150D37434709153F
:10189000121619E10ED000050D0C062D44400E1C49
:1018A0001816193A01557F0AB00103E2013FC00141
:1018B00022E20100B00100C0010AB00100000000F6
:1018C00000000000000000000000000000FFFF0F0B
:1018D0000000040062080008080003000C01030B6C
:1018E0005A0203060903031710040300230503002B
:1018F00017060309630703090C08030C10090332D8
:101900002210001600110001011200000013000156
:101910000000013003010137020301000D800200C5
:10192000610201B0C1FFFF320001000001020000AE
:101930000103003010090001000C000000900000BD
:10194000800F000000100200001102EF00120200E0
:101950000013028F01000500000105000002055F71
:10196000000104010004040000FFFF320007000032
:1019700001FFFF3200000200000102000000000031
:1019800000000000000000000000000100A40001B1
:1019900000FFFF0A0060000027080008083000145C
:1019A0000231001537320004063300160E340011E0
:1019B000223500001536000785370007143800036C
:1019C0001439002000900015001000100411003799
:1019D00002290046002A0046000700000012008984
:1019E0000113000011FFFF96001200B90101000071
:1019F000010200000203003010090001000A00008B
:101A0000000D0000000E003000610001006A0000BF
:101A100000800000008100000082005F0092000052
:101A20000193000107FFFF500007000001E500F0EF
:101A300078010000010200000203003010040000E1
:101A4000000500000008000702090000000A00006D
:101A5000000C0000000D0000000F0000001000004E
:101A60000011000700120000001300000007000131
:101A700000FFFFC8001000901611002702FFFF3280
:101A80000012000D00FFFF32001300001229000AAF
:101A9000002B000D00FFFF3200200000002100009D
:101AA000003000000031000404320003003500055E
:101AB000043600080837000704380003033900071C
:101AC000073C0004053D0008086000002761000194
:101AD000006A000000800000008100000082000019
:101AE00000830000008400000085000000900010CA
:101AF000009200000007003301E5000080000001B3
:101B00000001000001020000070300301004000083
:101B10000008000202090000000A0000000C00009A
:101B2000000D0000000F0000001000000011000771
:101B3000001200000013000000FFFF32001000B090
:101B40001711000700FFFF0A0012003A01FFFF0A09
:101B5000001300001A29000C00FFFF0A00300000EB
:101B6000003100050532000400350006003600078C
:101B7000073700050138000200390007073C000460
:101B8000073D000708600000A7610001006A00002F
:101B90000021000000200000008000000081000003
:101BA0000082000000830000008400000085000027
:101BB00000900010009200000093000300950010B8
:101BC00001970000009800000007007301FFFF323A
:101BD00000FF000100F30008000000010001000008
:101BE0000102000007030030100800020309000092
:101BF0000010000000110007001200000013000098
:101C000000FFFF32001000B014FFFF0A00110007B0
:101C100000FFFF0A0012008E001300000C290015BF
:101C200000FFFF0A00300000003100070132000011
:101C300000350003023600020437000000380007B8
:101C400002390000003C0003023D00030460000074
:101C5000A7610001009000290007003301FFFF3257
:101C600000150030009A001000110020001000281C
:101C7000341200020013003810FFFF280012001277
:101C800000FFFF28001000203413004530FFFF46FE
:101C9000003000000031000204320007033300046A
:101CA000033400040035000104360007073700053F
:101CB0000338001006390010060100000102000080
:101CC0000303003010080008080A00080060000044
:101CD000276100010090003E019200000193000086
:101CE00001A0000030A30010000700010007002140
:101CF0000007002300070033000700330111001A1A
:101D0000001200213113006C001400494210000041
:101D100008FFFF0A0011001A01FFFF0A0011001A54
:101D200003FFFF0A0011001A07FFFF0A0011001A43
:101D30000FFFFF0A0011003A0FFFFF1E00010028ED
:101D40000102000001030030100700121008000318
:101D5000030B0000110C0000000F000118150020FB
:101D60000050000101510003065200080453000016
:101D700000540005065500060456000303570003EF
:101D800003580010005900001007001200FFFF2840
:101D900000070013000700170000000000240027C0
:101DA000002A0001020408102040800102040810EB
:101DB00020010204081020040404040404040402A2
:101DC000020202020203030303030301036800206B
:101DD0007E1D4B0DB20A207E16006326CC331124E3
:101DE0001FBECFEFD8E0DEBFCDBF11E0A0E0B1E075
:101DF000EAE7F8E702C005900D92A43FB107D9F7D2
:101E000026E0A4EFB1E001C01D92A637B207E1F7CA
:101E10001EE0CEEEDEE004C02197FE010E942F38C6
:101E2000CD3ED107C9F70E94CC260C94303C0C94CF
:101E300000002F923F924F925F926F927F928F920B
:101E40009F92AF92BF92CF92DF92EF92FF920F9349
:101E50001F93CF93DF93CDB7DEB76D970FB6F8948E
:101E6000DEBF0FBECDBF3A8729871C870B87FE8652
:101E7000ED86D88ACF86F90171836083F80151839A
:101E80004083F60111821082F70111821082A09026
:101E90004506B090460620914706309148063C8F93
:101EA0002B8F2090560630905706309154063C8375
:101EB000F09051062F2D30E0388F2F8BE6E0FE9EFC
:101EC000900111243E832D83E0905206F8E0EF9EAE
:101ED0006001112491012C5F3F4F3A8B298B2F5FBA
:101EE0003F4F3C8B2B8B235031093A8F298F2C5F2E
:101EF0003F4F3B832A8398878F83850144244A94EC
:101F0000542CAFEFBFEFEF81F8858191F887EF8315
:101F1000882309F4C9C02114310409F490C08A301F
:101F200051F4EA81FB8184918E9D400D511D112455
:101F300070E060E0E8CF8D3031F3E989FA8994915F
:101F4000EB89FC899490282F082E000C330B9217F4
:101F5000130609F0C4F692161306ACF2E98DFA8D59
:101F600025913491891BF7E08F9F200D311D11249D
:101F7000F901329684918983319694919D8B3196A3
:101F800084918E8B319684912A5F3F4FF901F491B1
:101F9000FD8F2C812223F1F03981632E712C680E84
:101FA000711C87FD7A942F89388D629E4001639E53
:101FB000900C729E900C1124860E971EA814B904E2
:101FC0004CF4EA81FB8194919E9D400D511D11249A
:101FD00070E060E02F2D382F3203C0011124860FEE
:101FE000971F2E2D3D8D3203F00111249F01240FE8
:101FF000351F801791070CF48C01EB8DFC8D2E178B
:102000003F0714F43C8F2B8FF981FF9D800D911DAC
:1020100011240197A817B9070CF4DC018D898E9D56
:10202000200D311D112421503109421653060CF4A4
:1020300029019E899F9D600D711D112464CF8A30F6
:1020400019F44C0D5D1D74CF8D3009F45CCF2C81DB
:10205000222359F08D819E81860F971FA816B906FD
:1020600024F44C0D5D1D70E060E02D813E81260F53
:10207000371FC9010197A817B9070CF4DC01C60185
:10208000840F951F0197481659060CF42C01601710
:1020900071070CF48B018B8D9C8D4817590714F434
:1020A0005C8F4B8FB9012FCFA017B1075CF0E9858A
:1020B000FA8511830083A01BB10B1196ED85FE8577
:1020C000B183A0832B8D3C8D421653066CF0EB85BB
:1020D000FC8531832083421A530AFFEF4F1A5F0AAF
:1020E000EF85F889518240826D960FB6F894DEBF75
:1020F0000FBECDBFDF91CF911F910F91FF90EF9059
:10210000DF90CF90BF90AF909F908F907F906F9017
:102110005F904F903F902F90089508950895AF924B
:10212000BF92CF92DF92EF92FF920F931F93CF93C4
:10213000DF936C017B018B01040F151FEB015E0126
:10214000AE18BF08C017D10759F06991D601ED91BB
:10215000FC910190F081E02DC6010995892B79F75A
:10216000C501DF91CF911F910F91FF90EF90DF900C
:10217000CF90BF90AF900895833081F028F48130E4
:1021800099F08230A9F008958730A9F08830C9F01D
:102190008430B1F4809180008F7D03C080918000F5
:1021A0008F7780938000089584B58F7784BD0895DC
:1021B00084B58F7DFBCF8091B0008F778093B00086
:1021C00008958091B0008F7DF9CF1F93CF93DF9357
:1021D000282F30E0F901E352F94E8491F901ED55D1
:1021E000F24ED491F901E954F24EC491CC23A9F0F6
:1021F000162F81110E94BC10EC2FF0E0EE0FFF1F94
:10220000ED52F94EA591B4918FB7F894EC9111115C
:1022100008C0D095DE23DC938FBFDF91CF911F9153
:102220000895DE2BF8CFCF93DF9390E0FC01ED55BE
:10223000F24E24918954924EFC0184918823D1F06E
:1022400090E0880F991FFC01E756F24EA591B491DA
:10225000FC01ED52F94EC591D49161110EC09FB7AA
:10226000F8948C91E22FE0958E238C932881E223C1
:10227000E8839FBFDF91CF9108958FB7F894EC91D9
:10228000E22BEC938FBFF6CF3FB7F8948091A0027A
:102290009091A102A091A202B091A30226B5A89BA1
:1022A00005C02F3F19F00196A11DB11D3FBFBA2FE8
:1022B000A92F982F8827BC01CD01620F711D811DA8
:1022C000911D42E0660F771F881F991F4A95D1F72D
:1022D00008958F929F92AF92BF92CF92DF92EF922A
:1022E000FF926B017C010E9444114B015C01C114FF
:1022F000D104E104F104B9F00E944411681979098C
:102300008A099B09683E73408105910580F321E0AD
:10231000C21AD108E108F10888EE880E83E0981E01
:10232000A11CB11CE4CFFF90EF90DF90CF90BF9045
:10233000AF909F908F9008952FB7F89460919C0272
:1023400070919D0280919E0290919F022FBF0895EF
:102350004398429825B12C7F392F3370232B25B910
:102360002BB123709C7F922B9BB94198419A95B1D8
:102370009C7F282F2370922B95B99BB193708C7FF3
:10238000892B8BB94198419A429AFA01615078F0B1
:10239000219195B19C7F822F8370982B95B98BB139
:1023A00083702C7F822B8BB94198419AEFCF439A4F
:1023B0000895DF92EF92FF920F931F93CF93DF93D5
:1023C000CDB7DEB768970FB6F894DEBF0FBECDBFAE
:1023D0007C018B01F70184913196D490F2E0EF0EED
:1023E000F11C8F3779F0DE01119630E020E0AD016D
:1023F0002D1528F5F701E20FF31FE491ED932F5F00
:102400003F4FF6CF6D2D70E090E080E00E946911A3
:10241000D12CED2DF0E032960E1B1F0B101611067D
:10242000CCF268960FB6F894DEBF0FBECDBFDF9139
:10243000CF911F910F91FF90EF90DF900895ED0CD9
:10244000F11C6D2D90E00E94A811E3CF43984298B3
:1024500025B12C7F392F3370232B25B92BB1237055
:102460009C7F922B9BB94198419A95B19C7F282FD4
:102470002370922B95B99BB193708C7F892B8BB96C
:102480004198419A429A85B18C7F972F9370892BFE
:1024900085B98BB183707C7F782B7BB94198419A49
:1024A00085B18C7F962F9370892B85B98BB1837002
:1024B0006C7F682B6BB94198419A439A089581E0EB
:1024C0008093FD0584B1836084B98AB18C6F8AB929
:1024D000389A399A3A9A3B9A3C9A439A409A419A46
:1024E000449A62E370E080E090E00E9469114498B1
:1024F00064E670E080E090E00E946911449A64E62E
:1025000070E080E090E00E94691170E060E080EB94
:1025100090E00C942612CF93DF93C82FD62F809192
:10252000FD05811102C00E945F124398429885B157
:102530008C7F85B98BB183708BB94198419A95B1E5
:102540009C7F8C2F8370982B95B98BB18370CC7F37
:102550008C2B8BB94198419A429A84B18C7F84B973
:102560008AB183708AB961E070E080E090E00E94F7
:102570006911409A40984098409893B139B1409A77
:10258000409A40984098409883B129B1409AD150E0
:1025900080F7409A439A44B1436044B94AB14C6FC2
:1025A0004AB993703C7F932B83702C7F822BDF91F1
:1025B000CF910895FF920F931F93CF93DF938C01D8
:1025C00060E00E948B12EC0161E0C8010E948B1256
:1025D000F82E62E0C8010E948B12AE0170E060E04C
:1025E000742F66275527442700E030E020E0402B79
:1025F0005F29622B732B292F30E0C901B0E0A0E0E6
:102600008A019B01082B192B2A2B3B2BC901B801EE
:10261000DF91CF911F910F91FF9008950F931F931A
:10262000CF93DF938C0160E00E948B12EC0161E09C
:10263000C8010E948B128C01BE0190E080E0CB01AA
:102640007727662730E020E0602B712B822B932BBD
:10265000DF91CF911F910F9108950F931F93CF9307
:10266000DF93EC018B01FE0185919491FE0132967E
:102670002496659174918F3F980771F490E080E003
:102680000E946911045011091016110664F3DF91BC
:10269000CF911F910F9108950E942612F3CFFC0154
:1026A000262F358D868D82958170982F9627692FDC
:1026B00070E072A361A330FF0CC0821307C080E2F8
:1026C00090E050E040E060E00C94A81181E290E0DE
:1026D000F8CF878D90A1873222E99207C0F4853226
:1026E00022E9920758F4803224E59207B9F0833941
:1026F00027E7920799F084359140A1F4660F771F80
:10270000660F771F636187E090E00C942612863293
:1027100023E9920719F08930954B21F4626081E03A
:1027200094E0F3CF81E690E0F0CF8F929F92AF924A
:10273000BF92CF92DF92EF92FF920F931F93CF93AE
:10274000DF9300D000D0CDB7DEB77C014B015A013A
:102750006901FC01878D90A18732F3E99F0709F099
:1027600040C0F7018689823099F5F0E2AF0EB11CC6
:10277000005E1F4FF701858D80FF4AC085A59982B5
:102780008A82DB82CC82AE014F5F5F4F64E090E0D3
:102790000E94A811F70181A9B982AA821B830C8328
:1027A000AE014F5F5F4F64E090E00E94A8110F9070
:1027B0000F900F900F90DF91CF911F910F91FF908D
:1027C000EF90DF90CF90BF90AF909F908F90089543
:1027D000833081F620E2820E911C80E2C80ED11C6B
:1027E000C9CF8632954131F6F701868980FFC2CF85
:1027F000C801841B950B19F40F5F1F4FBBCF6217E5
:10280000730709F0B7CF6B01C80ED91E8A01B2CF8A
:10281000B40187A190A50E942612B501F70181A5F8
:1028200092A50E942612C814D90421F40A151B058A
:1028300009F4BDCFF701858D85FF08C0868980FF2B
:102840001EC0102F0027A02AB12A8501B401F7016C
:1028500085A596A50E942612B501F70181A992A926
:102860000E942612B601F70187A590A90E942612A0
:10287000B801F70183A994A90E94261298CFDC2CF5
:10288000CC248C289D286401E1CFAF92BF92CF92D7
:10289000DF92EF92FF920F931F93CF93DF93EC01A0
:1028A0008091A402882349F0C701880F991F8E7375
:1028B0009927E1ECEE22E82AF92A37FF05C0620FDA
:1028C000731F319521953109260F371F77FF02C0FD
:1028D00070E060E088859985281739070CF4C901F4
:1028E0006C01C61AD70A17FF05C0400F511F11957A
:1028F00001951109040F151F57FF02C050E040E079
:102900002A853B85021713070CF498015901A41A74
:10291000B50A8901015011099C0121503109CE01EC
:102920000E949513439842983BA58CA525B12C7F16
:10293000982F9370292B25B99BB193708C7F982B7E
:102940009BB94198419A95B19C7F832F8370982BB6
:1029500095B98BB183703C7F832B8BB94198419A99
:10296000429ACA14DB042CF09A2D8B2D5601C92EE5
:10297000D82E9F2D4F2D43709C7F5E2D53702E2D92
:102980002C7FE22E1C141D04E4F4950185B18C7F8C
:10299000842B85B98BB18370892B8BB94198419A6F
:1029A00085B18C7F852B85B98BB183708E298BB9CE
:1029B0004198419A2150310949F781E0C81AD1085C
:1029C000E1CF439A8D8D80FF08C08F8D98A186320C
:1029D000954191F48E8980FF0FC00A851B850150B7
:1029E0001109288539852150310950E040E070E017
:1029F00060E0CE010E949513DF91CF911F910F915E
:102A0000FF90EF90DF90CF90BF90AF900895EF923E
:102A1000FF920F931F93CF93DF937C01E90177FD22
:102A20002AC057FD28C0FC01808591856817790769
:102A300014F58285938548175907ECF48091A40218
:102A4000882341F0C901880F991F8E739927C17C93
:102A5000C82BD92B8A019B01C7010E949513BE0187
:102A6000F70183A594A5DF91CF911F910F91FF905E
:102A7000EF900C942612DF91CF911F910F91FF9050
:102A8000EF900895EF92FF920F931F93CF93DF93F0
:102A9000CDB7DEB72A970FB6F894DEBF0FBECDBF15
:102AA0007C01862F8370F701868B962F917060FFD3
:102AB000F1C026813781F70131872087992309F4F6
:102AC000ECC024813581F70133872287823009F4F5
:102AD000E9C0833009F4E8C0813009F4E1C088E43A
:102AE0008A87F701258D368D30FF03C08A8580588F
:102AF0008A8731FF04C08A8590E489278A8733FF5B
:102B000004C08A8598E089278A87F701878D90A17C
:102B100020FFFAC08431F8E69F0709F0C7C09A8504
:102B2000892F88728A871F82892F85958074282F24
:102B30002260892F90E09595879580729927822B46
:102B400088878BE38987AE01495F5F4F63E086EB3F
:102B500090E00E94A8112AE230E0F70130A727A3F5
:102B60008BE290E092A781A74CE250E054A743A7E4
:102B700036A725A730AB27A792AB81AB94AB83AB2D
:102B8000AE01465F5F4F61E086E390E00E94A811CE
:102B90008A8590E0F70194A383A3F701868980FFDB
:102BA0001CC0858D968D92FD18C087A190A521A58A
:102BB00032A530A727A392A781A785A596A521A90D
:102BC00032A936A725A792AB81AB87A590A923A9E7
:102BD00034A930AB27A794AB83ABF70102851385EB
:102BE00001501109208531852150310950E040E024
:102BF00070E060E0C7010E949513F701668177815C
:102C0000878D90A110E000E020E08732F3E99F0774
:102C100069F4F7012689225010E000E0223010F418
:102C200000E210E020E230E0201B310BF701458D7F
:102C300040FF24C119820A837B836C831D822E830B
:102C4000AE014F5F5F4F66E083E390E00E94A81102
:102C500019820A83AE014F5F5F4F62E087E390E025
:102C60000E94A811F701858D80FF07C050E040E069
:102C700060E083E190E00E94A8112A960FB6F894D4
:102C8000DEBF0FBECDBFDF91CF911F910F91FF909F
:102C9000EF900895248135810ECF2681378113CF9F
:102CA00088E21ECF88E91CCF88EF1ACF833629E14E
:102CB000920749F0813844E9940729F08131E5E130
:102CC0009E0709F048CF2A8527FF02C021602A8786
:102CD0002A8526FF02C022602A878336F9E19F07F2
:102CE00021F48A858F738A8736CF813824E9920749
:102CF00019F48A858F72F7CF8131954109F02BCF76
:102D00008A858F7E806CEFCF6A85262F062E000C79
:102D1000330B8339F7E79F0761F008F042C0843531
:102D2000E1E09E0709F46AC08032F4E59F0709F0EC
:102D300041C040E052E0F70150A747A341E052E014
:102D400052A741A742E052E054A743A740E152E016
:102D500056A745A741E152E050AB47A742E152E0F8
:102D600052AB41AB43E152E054AB43AB2227307846
:102D70008632F3E99F0729F060E07AE680329445D5
:102D800011F460E075E3622B732B80E094E00E9405
:102D900026126A85F4E06F9FB001112466277170D6
:102DA00055C0863243E9940721F28930E5EB9E074E
:102DB00009F4BFCF80E290E0F70190A787A381E2FA
:102DC00090E092A781A782E290E094A783A780E594
:102DD00090E096A785A781E590E090AB87A782E574
:102DE00090E092AB81AB83E590E094AB83ABB9010B
:102DF00066277078776280E690E0C9CF87E390E03D
:102E0000F70196A785A786E390E090AB87A789E3B3
:102E100090E092AB81AB88E390E094AB83AB80E22F
:102E200090E090A787A381E290E092A781A782E239
:102E300090E094A783A7F4E06F9FB0011124662768
:102E40007170222732702862622B732B81E090E030
:102E50000E9426128A85682F70E075956795759592
:102E600067956870772783FD70616063F70174A3CD
:102E700063A383E090E00E9426128FCE8339F7E7A8
:102E80009F0789F1F8F4803244E5940761F18338B3
:102E9000E7E79E07A1F184359140E9F4600F711FC7
:102EA0006150710981E390E00E942612B80182E32B
:102EB00090E00E94261270E060E083E390E00E94C0
:102EC0002612DBCE863223E9920769F048F4855258
:102ED0009249029718F3F70161A172A1626012C0D2
:102EE0008930954BC1F7F70161A172A1626081E061
:102EF00094E00E942612B80184E094E0E0CFF7014C
:102F000061A172A181E690E00E942612B8018AE6D2
:102F100090E0D5CF85ED8093BC008091BC0084FD0E
:102F2000FCCF1092AC02089520915402260F332753
:102F3000331F21323105ECF42091AC02FC0190E00A
:102F400080E0243069F082E00895A091540221913C
:102F5000AC014C5C5D4FA40FB52FB11D2C930196B5
:102F6000861798F380915402680F6093540280E0B2
:102F7000089581E008950895E091AE028091AD0238
:102F8000E81730F4F0E0EC5EFD4F808190E00895AA
:102F90008FEF9FEF08959091AE028091AD022FEFD9
:102FA0003FEF981748F4E92FF0E0EC5EFD4F2081E9
:102FB00030E09F5F9093AE02C90108958091AD0209
:102FC0009091AE02891B990B0895CF92DF92EF92F8
:102FD000FF920F931F93CF93DF937C01CB018A0164
:102FE00020910106222389F0EB016B01C40ED51E4E
:102FF000CC15DD0569F06991D701ED91FC91019047
:10300000F081E02DC7010995F3CF642F0E9494173A
:10301000C801DF91CF911F910F91FF90EF90DF904A
:10302000CF900895CF93DF931F92CDB7DEB769831A
:10303000209101062223F9F02091FE05203258F05C
:1030400021E030E0FC013383228390E080E00F90A8
:10305000DF91CF9108958091FF05E82FF0E0EC50CB
:10306000FE4F998190838F5F8093FF058093FE05CB
:1030700081E090E0ECCF61E0CE0101960E949417D0
:10308000F7CF2091FE0581E0213208F044C0809105
:10309000AC028111FCCF8091000692E09093AC02CB
:1030A00091E09093AB029FEF909377021092990278
:1030B00020939802A4EFB1E0E8E7F2E090E0291352
:1030C00031C010929A0290919A02880F892B8093B6
:1030D0009A028091AA02813049F51092AA02809149
:1030E0009A028093BB008091BC0083FDF8CF85ECF1
:1030F0008093BC008091AC028230E1F38091770232
:103100008F3FB1F0809177028032A1F080917702F9
:10311000803391F084E01092FF051092FE0510922A
:10312000010608953D9131939F5FC9CF85EEE0CFB1
:1031300080E0F1CF82E0EFCF83E0EDCF0895AF9252
:10314000BF92CF92DF92EF92FF920F931F93CF9394
:10315000DF93FC0124892F3F91F46EBD00000DB474
:1031600007FEFDCFDEB48D2DDF91CF911F910F9122
:10317000FF90EF90DF90CF90BF90AF900895B62E64
:10318000EC01D12C07E010E0EE24E394F12CDD0CEF
:1031900060E08C890E94E510B701002E01C0660F27
:1031A0000A94EAF76B218A890E94E51061E08C8914
:1031B0000E94E5102B8930E0F901E352F94E849129
:1031C000F901ED55F24EC490F901E954F24EA49084
:1031D000AA2081F081110E94BC10EA2DF0E0EE0FD0
:1031E000FF1FE753F94EA591B491EC91CE2211F057
:1031F0006894D0F80150110908F0C9CFB4CF0895F0
:1032000008958CBD9DBD0895CF93DF93C82FD62F11
:1032100080911F068F3F59F580910E0690910F0601
:103220002091160631E0309301062093000610929B
:10323000FF051092FE05DC01ED91FC910190F081FB
:10324000E02D6C2F099580910E0690910F06DC0100
:10325000ED91FC910190F081E02D6D2F0995809109
:103260000E0690910F06DF91CF910C94411880913A
:1032700022068F3F21F482E591E00E94011960E06F
:1032800080911F060E94E5106C2F6F778EE096E00C
:103290000E949F186D2F8EE096E00E949F1861E0BB
:1032A00080911F06DF91CF910C94E510CF93DF93AF
:1032B000CCE3D6E08770886E8883EBE3F6E0962F48
:1032C0009770990F990F990F8081807C242F277018
:1032D000892B822B808395E0440F551F9A95E1F747
:1032E00087FB882780F9482B660F771F660F771FAB
:1032F000642B85EF0E9404198881682F677090E223
:10330000699FB0011124282F2695269526952770B0
:1033100094E0299F90011124622B829586958695D1
:103320008370682B84EFDF91CF910C94041908957A
:10333000FC016370668B84819581268137816130C1
:1033400039F0633029F09187808733872287089589
:10335000318720879387828708952F923F924F92DB
:103360005F926F927F928F929F92AF92BF92CF9215
:10337000DF92EF92FF920F931F93CF93DF93CDB71E
:10338000DEB76A970FB6F894DEBF0FBECDBF9A8F37
:10339000898F7A8369834A01D22E18870F83370178
:1033A000BC2CDC0159962D913C915A972115310581
:1033B00009F015C118968D919C9119976817790796
:1033C0000CF0D7C11A968D919C91481759070CF0B3
:1033D000D0C14C2C512CB6E0CB9E600D711D112438
:1033E0007C876B87161617060CF0C3C1EA2DF0E038
:1033F000FA87E98793E0EE0FFF1F9A95E1F7F88BC4
:10340000EF87CF01840F951F181619060CF0B1C174
:10341000A98DBA8D58968C91811104C0BFEABD1553
:1034200008F4D394A98DBA8DED91FC911197028483
:10343000F385E02DCD010995B5E0DB9EC001112497
:10344000E981FA81FC83EB83312C212C9C012753E9
:103450003E4E388F2F8B4A2D50E05E8B4D8BEF897F
:10346000F88DE20DF31D44919E828D82D12CC12CEA
:1034700069817A81620D731D7A8B698B842F90E04C
:103480009C8B8B8BE98DFA8DA081B18140FF82C02E
:10349000F1E0BF126FC0AF126DC01C96ED91FC91B0
:1034A0002F813885A4014C0D5D1D69897A89898D2C
:1034B0009A8D0995EB89FC89F595E7954E2F5FEF7D
:1034C000C51AD50A6D817E818D899E89680F791F05
:1034D0007E836D8398E0C916D10481F6AFEF2A1A76
:1034E0003A0AEB81FC81E40DF51DFC83EB83F5E0EA
:1034F0002F16310409F0B3CF2F81388526153705F3
:10350000B9F0A98DBA8DED91FC91B1E0BB1257C015
:10351000AB1255C069817A816B5F7F4F0088F1895A
:10352000E02D830128E030E0A401898D9A8D099572
:10353000A98DBA8DED91FC9111970688F789E02D40
:10354000CD016A960FB6F894DEBF0FBECDBFDF91F6
:10355000CF911F910F91FF90EF90DF90CF90BF9090
:10356000AF909F908F907F906F905F904F903F9023
:103570002F9009941E96ED91FC91EF80F8840985B7
:103580001A8592014D815E816B817C81898D9A8D36
:10359000099590CF2F8138852615370509F48ACFF4
:1035A00031E0B31207C0A31205C01C96ED91FC9147
:1035B000930178CF1E96ED91FC917301E0CF6B855E
:1035C0007C85641975090684F785E02D73010F85E4
:1035D00018899201A401898D9A8D0995A9CFF901C5
:1035E00034969491329745915491D91AB7E0DB9E65
:1035F000400D511D1124F901259134913C8B2B8BE9
:10360000FA0125903490FA013296749031963491F3
:10361000398B329664903196449041E04C1518F005
:103620004A1508F07FC0662D062C000C770B7C83B2
:103630006B83842D042C000C990B9E838D83A98DA4
:10364000BA8DED91FC9111970284F385E02DCD01A7
:103650000995512CD12CC12CEA2DF0E0FA87E9878D
:103660002B2D30E03C872B87A401440D511D47FCD6
:103670005A95588F4F8B69817A81660D711D67FC51
:103680007A957E876D877989C71608F051CF2C2DE2
:1036900030E04D815E81420F531FA985BA854A9F54
:1036A000C0014B9F900D5A9F900D1124FC01E80D15
:1036B000F91DF88BEF87852D612C4F89588D420FAE
:1036C000531F5E8B4D8B671408F050C04424439405
:1036D000480E877041F4C1010196EB89FC89E20D27
:1036E000F31DD4901C01D7FE19C0A98DBA8DED91A0
:1036F000FC91662D70E0B1E0BB1219C0AB1217C08F
:103700002D853E85620F731F0484F585E02D2F8182
:1037100038854D895E89898D9A8D0995DD0C639474
:10372000842DD1CF1E821D821C821B8288CF4B81AB
:103730005C81640F751FAB85BC856A9FC0016B9F60
:10374000900D7A9F900D112469817A81680F791FFD
:103750000684F785E02DEF80F88409851A859D01A0
:103760004F855889898D9A8D0995D8CF570CC39468
:103770008ACF6A960FB6F894DEBF0FBECDBFDF9139
:10378000CF911F910F91FF90EF90DF90CF90BF905E
:10379000AF909F908F907F906F905F904F903F90F1
:1037A0002F9008958F929F92AF92CF92EF92FF92B7
:1037B0000F931F93CF93DF93EC01262F898D9A8D62
:1037C000009709F051C06A30D1F41D861C868D899E
:1037D00048E0849F900111248E859F85820F931F5E
:1037E0009F878E8781E090E0DF91CF911F910F91AD
:1037F000FF90EF90CF90AF909F908F9008956D3095
:1038000089F3CC88AD888F898823C1F08C859D850C
:1038100036E0C39E800D911D1124488559854817B7
:10382000590764F44E855F851D861C8638E0A39E8B
:10383000C0011124840F951F9F878E87EA88FB881B
:10384000088919894E855F856C857D85CE010E942A
:10385000AD192C898C859D8546E0249F800D911D96
:1038600011249D878C87BECF6A3069F41D861C8623
:10387000FC013696E4912D898E859F85E29F800D0F
:10388000911D1124ADCF6D3009F4ACCFFC013496FD
:103890003491631708F4A6CF3196E491E61708F443
:1038A000A1CFFC01329685909490462F431B342F74
:1038B00047E0349F800C911C1124F401329634911E
:1038C0003196E4913323A9F1EE2399F1CC88F401E8
:1038D0003596E491AD884F89442301F10E2E000CFA
:1038E000FF0BE30FF11DCE9EA001CF9E500D1124C2
:1038F0006C857D85460F571F688579856417750728
:103900006CF44E855F851D861C86FC013696E4911D
:10391000AE9E400D511D11245F874E87EA88FB88BB
:10392000088919894E855F856C857D85CE010E9449
:10393000AD19F4013496E4912C898C859D85E29F24
:10394000800D911D11248DCF6F927F928F929F9247
:10395000AF92BF92CF92DF92EF92FF920F931F939D
:10396000CF93DF93EC016B015A0139014801E881E3
:10397000F9810284F385E02D0995E881F9810288B7
:10398000F389E02D87019301A501B601CE010995C8
:10399000A501480D591D41505109E881F98102885E
:1039A000F389E02D9301B601CE010995E881F981F3
:1039B0000088F189E02D9401A501B601CE01099599
:1039C000C60CD71CB60161507109E881F9810088E5
:1039D000F189E02D9401A501CE010995E881F981D5
:1039E0000688F789E02DCE01DF91CF911F910F91CD
:1039F000FF90EF90DF90CF90BF90AF909F908F900F
:103A00007F906F9009946F927F928F929F92AF9266
:103A1000BF92CF92DF92EF92FF920F931F93CF93BB
:103A2000DF935C01EB016A01490138018701DC0188
:103A3000ED91FC916217730719F5641675062CF069
:103A4000962D872D3A01C92ED82E960126193709B1
:103A50002F5F3F4F048CF58DE02DA301BE01C50102
:103A60000995DF91CF911F910F91FF90EF90DF901B
:103A7000CF90BF90AF909F908F907F906F90089560
:103A80004615570591F42617370724F0892D4B0169
:103A9000C22FD82F9E01281939092F5F3F4F068C5E
:103AA000F78DE02DA601B401DACF0284F385E02D75
:103AB0000995D501ED91FC910488F589E02D8301EC
:103AC0009401A601BE01C5010995D501ED91FC91B6
:103AD0000688F789E02DC501DF91CF911F910F91E5
:103AE000FF90EF90DF90CF90BF90AF909F908F901E
:103AF0007F906F900994EF92FF920F931F93DC01D8
:103B00001A960D911C911B9718962D913C9119971F
:103B1000ED91FC9100A0F1A1E02D7B0150E040E08F
:103B200070E060E009951F910F91FF90EF9008956C
:103B30004F925F926F927F928F929F92AF92BF92BD
:103B4000CF92DF92EF92FF920F931F93CF93DF9369
:103B50006C012B015A0139014801DC01ED91FC9106
:103B60000284F385E02D0995E201640C751CD601F1
:103B7000ED91FC91C615D7055CF40088F189E02D24
:103B800087019401A501BE01C60109952196EFCFD9
:103B90000688F789E02DC601DF91CF911F910F9123
:103BA000FF90EF90DF90CF90BF90AF909F908F905D
:103BB0007F906F905F904F9009948F929F92AF92F9
:103BC000BF92CF92DF92EF92FF920F931F93CF930A
:103BD000DF93EC015B014A016901E881F98102840C
:103BE000F385E02D099595012C0D3D1D21503109DE
:103BF000E881F9810488F589E02D78018401A40128
:103C0000B501CE010995E881F9810688F789E02D93
:103C1000CE01DF91CF911F910F91FF90EF90DF9038
:103C2000CF90BF90AF909F908F9009948F929F926A
:103C3000AF92BF92CF92DF92EF92FF920F931F93BA
:103C4000CF93DF93EC015B014A0169017801E881C0
:103C5000F9810284F385E02D0995C80CD91C8601F1
:103C600001501109E881F9810488F589E02D950159
:103C7000A401B501CE010995E881F9810688F7898B
:103C8000E02DCE01DF91CF911F910F91FF90EF902A
:103C9000DF90CF90BF90AF909F908F900994EF925C
:103CA000FF920F931F93DC01ED91FC9100A0F1A115
:103CB000E02D09951F910F91FF90EF9008950F93BC
:103CC0001F93DC01ED91FC91068CF78DE02D099599
:103CD0001F910F9108950F931F93DC01ED91FC91BB
:103CE000048CF58DE02D09951F910F910895DC014D
:103CF000ED91FC910084F185E02D09942F923F9283
:103D00004F925F926F927F928F929F92AF92BF92EB
:103D1000CF92DF92EF92FF920F931F93CF93DF9397
:103D200000D000D000D0CDB7DEB73C016A013E83A1
:103D30002D83FC82EB825801A41AB50AB7FE03C09A
:103D4000B194A194B1088D809E80861A970A97FE3F
:103D500003C09194819491088A149B045CF0902F85
:103D6000812F0D811E819D838E839C2D8D2D6B0156
:103D7000692F782F0C151D055CF09D818E817E8347
:103D80006D83692F782F902F812F8601C92ED82E11
:103D90001601201A310A2B012D813E81421A530A45
:103DA00057FE03C0519441945108710137FE03C07E
:103DB0003FEFE31AF30AF594E7948D819E8186170D
:103DC00097075CF5A1E0B0E0BA83A983C016D106DD
:103DD0004CF1D301ED91FC910484F585E02D2B810C
:103DE0003C81A8016D817E818A149B041CF04D8169
:103DF0005E81B801C3010995E418F508F7FE0AC011
:103E00002D813E8189819A81280F391F3E832D8320
:103E1000E20CF31C0F5F1F4FD9CF2FEF3FEF3A8318
:103E20002983D4CF26960FB6F894DEBF0FBECDBF40
:103E3000DF91CF911F910F91FF90EF90DF90CF9086
:103E4000BF90AF909F908F907F906F905F904F90BA
:103E50003F902F900895089590E080E008958A3073
:103E6000910590F08431910590F08233910590F0A6
:103E70008436910590F0883C910590F0843F914004
:103E800090F088EE93E008958AE090E0089584E150
:103E900090E0089582E390E0089584E690E008952C
:103EA00088EC90E0089584EF91E00895EF92FF92FE
:103EB0000F931F93DC011A960D911C911B97189676
:103EC0002D913C911997ED91FC9100A0F1A1E02D6D
:103ED0007B0150E040E070E060E009951F910F9198
:103EE000FF90EF900895EF92FF920F931F93DC01E4
:103EF000ED91FC9100A0F1A1E02D780101E010E02E
:103F000009951F910F91FF90EF900895EF92FF9206
:103F10000F931F93DC01ED91FC9100A0F1A1E02D26
:103F20007801890121E030E009951F910F91FF9000
:103F3000EF9008958091AC028111FCCF81E08093D5
:103F4000AC028093AB029FEF90937702109299029C
:103F5000940F9093980280939A0280919A02660F30
:103F6000682B60939A028091AA02813019F5109211
:103F7000AA0280919A028093BB008091BC0083FDCD
:103F8000F8CF85EC8093BC008091AC028130E1F3E6
:103F900080919902841710F440919902A8E7B2E049
:103FA000E4E1F2E080E0841307C01092AE02809357
:103FB000AD02089585EEE6CF9D9191938F5FF3CF8B
:103FC000CF93DF93C82F80911F068F3F09F047C022
:103FD00080910E0690910F062091160631E03093E5
:103FE0000106209300061092FF051092FE05DC01E9
:103FF000ED91FC910190F081E02D6C2F099580915D
:104000000E0690910F060E94411842E0609116063C
:1040100080910E0690910F060E949A1F80910E06C5
:1040200090910F06DC01ED91FC910284F385E02D67
:104030000995C82F80910E0690910F06DC01ED9135
:10404000FC910284F385E02D099520E03C2FE901E5
:10405000C82BD92B9C2F8D2FDF91CF910895809164
:1040600022068F3F21F482E591E00E94011960E071
:1040700080911F060E94E5106C2F8EE096E00E9452
:104080009F1860E08EE096E00E949F18C82F60E0C5
:104090008EE096E00E949F18DC2FC82F61E080918F
:1040A0001F060E94E510D6CF8F929F92AF92BF92CB
:1040B000CF92DF92EF92FF92CF93DF93EC01F62E37
:1040C00089898F3F09F063C088819981288531E013
:1040D00030930106209300061092FF051092FE0512
:1040E000DC01ED91FC910190F081E02D0995888132
:1040F00099810E94411843E06885888199810E94D6
:104100009A1F88819981DC01ED91FC910284F385ED
:10411000E02D09954C01990FAA08BB08BA2CA92CCF
:10412000982C882488819981DC01ED91FC9102848E
:10413000F385E02D0995092E000CAA0BBB0B882AEC
:10414000992AAA2ABB2ABA2CA92C982C88248881BF
:104150009981DC01ED91FC910284F385E02D0995B4
:10416000092E000CAA0BBB0B6C017D01C828D928B5
:10417000EA28FB28C701B601DF91CF91FF90EF90AD
:10418000DF90CF90BF90AF909F908F9008958C89D3
:104190008F3F21F482E591E00E94011960E0898956
:1041A0000E94E5106F2DCE010E949F1860E0CE01A5
:1041B0000E949F1890E0B0E0A0E0CC24D82EE92E19
:1041C000FA2E60E0CE010E949F18C82AFE2CED2C2A
:1041D000DC2CCC2460E0CE010E949F18C82A61E04C
:1041E00089890E94E510C6CF8F929F92AF92BF92AD
:1041F000CF92DF92EF92FF920F931F93CF93DF93B3
:10420000EC016AEF0E9454200D891E8930E020E005
:10421000C72ED82EE92EFF24E7FCFA94C01AD10A43
:10422000E20AF30A57E095958795779567955A9531
:10423000D1F7000F111F221F331F4B015C01801AA1
:10424000910AA20AB30AA5019401AF89B88D0E9410
:10425000A4364B015C01FBE0B594A7949794879436
:10426000FA95D1F7A7019601C701B6010E94613600
:104270009B01AC01ACE05595479537952795AA95DC
:10428000D1F7A98DBA8D0E94A4369B01AC01BEE086
:104290005595479537952795BA95D1F7280D391D2E
:1042A0004A1D5B1D2D873E874F87588BA5E0B0E0E8
:1042B0000E94993660587F4F8F4F9F4F672F782FFE
:1042C000892F992787FD9A950E941A3520E030E0C2
:1042D00048EC52E40E946A34DF91CF911F910F9114
:1042E000FF90EF90DF90CF90BF90AF909F908F9016
:1042F00008952F923F924F925F926F927F928F928A
:104300009F92AF92BF92CF92DF92EF92FF920F9364
:104310001F93CF93DF93CDB7DEB76D970FB6F894A9
:10432000DEBF0FBECDBF9D8F8C8F0E94F42067EF44
:104330008C8D9D8D0E945420688F798F8A8F9B8FE2
:10434000EC8DFD8D85859685A785B0896C017D01F5
:10435000FF0CCC08DC2C76019C01AD016C2D7C2D72
:104360008C2D9C2D345F41405109610971098109EF
:10437000910929873A874B875C873B014C0159019A
:104380006A017B018C010E94AC36322E232E4A8BAF
:104390005B8B6C8B7D8B8E8B9F8BAC8DBD8D5E967E
:1043A0003C915E975D962C91932F990F990B492F15
:1043B000592F692F792F892F0E94AC360CE00E946B
:1043C000DB37522E39834D875E876F87788B898BD9
:1043D000492EEC8DFD8D30A1278D932F990F990BD0
:1043E000A32CB22CCA88DB88EC88FD880E891F8933
:1043F000492F592F692F792F892F0E94AC3608E059
:104400000E94F437A52CB980CD84DE84EF84F8882F
:104410000989142D0E94113870588F4F9F4FAC8D11
:10442000BD8D5B96ED91FC915F01D12CC12CE12CEF
:10443000F12C8701E983BA82CB82DC82ED82FE8295
:104440000F831887C12CD12CE12CF12C00E010E057
:104450000E94AC3601E20E94F4372983532E4D8727
:104460005E876F87788B898B492EA0E00E94233866
:1044700009F43DC1AC8DBD8D96963C91969795966D
:104480002C91932F990F990BA32CB22CCA88DB88FF
:10449000EC88FD880E891F89492F592F692F792FA4
:1044A000892F0E94AC3619014A8B5B8B6C8B7D8BFC
:1044B0008E8B9F8BEC8DFD8D34A123A1932F990FB3
:1044C000990BA984BA84CB84DC8473018401492FBD
:1044D000592F692F792F892F0E94AC3601E10E9454
:1044E000DB375101CA88DB88EC88FD880E891F897B
:1044F0000E94113859016A017B01282E192F488D1D
:10450000598D6A8D7B8D84E0759567955795479594
:104510008A95D1F780E090E0A0E1B0E0841B950B94
:10452000A60BB70B3C014D01990C6608762C430194
:104530009C01AD01662D762D862D962D0FE10E94F2
:10454000DB37722E832E942E652EB62FA72F382E92
:104550009987EC8DFD8D32A121A1932F990F990B95
:10456000492F592F692F792F892F03E20E94DB37BA
:10457000022D0E94113859016A017B018C01272DFF
:10458000382D492D562D6B2F7A2F832D99850E941A
:104590001A38E5E3AE2EFCE0BF2EC12CD12CE12C65
:1045A000F12C00E010E00E94AC36A980B52CCD843F
:1045B000DE84EF84F8880989142D0E940637298744
:1045C0003A874B875C8769837D878E879F870DE05D
:1045D0000E94F437922E832E742E652E562E472E6F
:1045E000382E292EAC8DBD8D9C963C919C979B9628
:1045F0002C91932F990F990BA92CB82CC72CD62C42
:10460000E52CF42C032D122D492F592F692F792FCA
:10461000892F0E94AC360E94AC3609E10E94F43723
:10462000A984BA84CB84DC84E980FD840E851F854F
:104630000E94113819012A013B014C01EC8DFD8DBE
:1046400032A521A5932F990F990B492F592F692F27
:10465000792F892F0E94AC3603E10E94F43759016B
:104660006A017B018C019101A201B301C4010E9486
:10467000113808E00E94F43759016A017B01E82FE4
:10468000192FAC8DBD8D98963C91989797962C914B
:10469000932F990F990B492F592F692F792F892F14
:1046A00004E00E94DB370E2F0E9411380E94123561
:1046B00020E030E040E85BE30E94F4356D960FB6F1
:1046C000F894DEBF0FBECDBFDF91CF911F910F9148
:1046D000FF90EF90DF90CF90BF90AF909F908F9022
:1046E0007F906F905F904F903F902F90089560E083
:1046F00070E0CB01E3CFFC0101900020E9F7319796
:10470000AF01481B590BBC018DE396E00C948F1050
:104710000F931F93CF93DF938C01EB01FB01349632
:1047200080E2DF011D928A95E9F784E290E0A0E043
:10473000B0E088839983AA83BB83F8018381948145
:10474000092E000CAA0BBB0B8C839D83AE83BF8309
:1047500086E090E0A0E0B0E088879987AA87BB87D1
:104760000E949C11688B798B8A8B9B8BD801159644
:104770008D919C910E94792120E030E048EC52E438
:104780000E946A346C8B7D8B8E8B9F8B81E0DF91D6
:10479000CF911F910F9108950F931F93CF93DF93A4
:1047A0008C01EB01FB01349680E2DF011D928A95BA
:1047B000E9F784E290E0A0E0B0E088839983AA83DF
:1047C000BB83F80183819481092E000CAA0BBB0BDB
:1047D0008C839D83AE83BF838DE090E0A0E0B0E04A
:1047E00088879987AA87BB870E949C11688B798BE1
:1047F0008A8B9B8BD80115968D919C910E94F420F9
:104800006C8B7D8B8E8B9F8B81E0DF91CF911F9185
:104810000F910895FC019B016AE070E00E948536CB
:10482000E031F742ACF49F938F937F936F9389E9C4
:1048300091E09F938F933F932F930E948F398DB771
:104840009EB708960FB6F8949EBF0FBE8DBF089511
:104850009F938F937F936F938BE991E09F938F93B7
:104860003F932F930E948F398DB79EB708960FB64E
:10487000F8949EBF0FBE8DBF08950E9469390C94B5
:10488000E0380C94E0380F931F93CF93DF938C01A3
:10489000EB0188E2FB0111928A95E9F74BE050E0C9
:1048A00061EA71E0CE010E9480391B8681E090E0D0
:1048B000A0E0B0E08C879D87AE87BF87F801838139
:1048C0009481092E000CAA0BBB0B888B998BAA8BA9
:1048D000BB8B86E090E0A0E0B0E08C8B9D8BAE8B34
:1048E000BF8B1CA21DA21EA21FA280E090E0A6E921
:1048F000B3E4888F998FAA8FBB8F80E090E8A9E8F6
:10490000B4E48C8F9D8FAE8FBF8F86EA9BE9A4E4C1
:10491000BCE388A399A3AAA3BBA3DF91CF911F9166
:104920000F9108950F931F93CF93DF938C01EB01A9
:1049300088E2FB0111928A95E9F74BE050E061EAC9
:1049400071E0CE010E9480391B8681E090E0A0E0FA
:10495000B0E08C879D87AE87BF87F8018381948103
:10496000092E000CAA0BBB0B888B998BAA8BBB8BD7
:104970008DE090E0A0E0B0E08C8B9D8BAE8BBF8B88
:104980001CA21DA21EA21FA280E090E0A0E2B2EC39
:10499000888F998FAA8FBB8F80E090E0AAEAB2E45B
:1049A0008C8F9D8FAE8FBF8F8AE097EDA3E2BCE323
:1049B00088A399A3AAA3BBA3DF91CF911F910F91C5
:1049C0000895FF920F931F93CF93DF93EC01F62E80
:1049D00008811981C8010E94E733F81621F06F2D74
:1049E000C8010E94EF33CE01DF91CF911F910F914B
:1049F000FF9008951F920F920FB60F9211242F93DC
:104A00003F938F939F93AF93BF9380919C0290911C
:104A10009D02A0919E02B0919F0230919B0223E0E3
:104A2000230F2D3758F50196A11DB11D20939B0230
:104A300080939C0290939D02A0939E02B0939F024C
:104A40008091A0029091A102A091A202B091A30234
:104A50000196A11DB11D8093A0029093A102A09385
:104A6000A202B093A302BF91AF919F918F913F910A
:104A70002F910F900FBE0F901F90189526E8230FCF
:104A80000296A11DB11DD2CF1F920F920FB60F92A9
:104A900011242F933F934F935F936F937F938F9343
:104AA0009F93AF93BF93EF93FF938091B900887F5B
:104AB000803609F44AC0F0F5883209F4A7C018F529
:104AC000803109F49BC0B8F4882309F4F9C0883018
:104AD00009F494C0FF91EF91BF91AF919F918F9195
:104AE0007F916F915F914F913F912F910F900FBEEA
:104AF0000F901F901895883109F488C0803251F7C3
:104B00008093770214C0803409F49DC040F4803350
:104B1000B9F38833F9F68093770285ECB0C080351D
:104B200009F485C0883509F496C0883499F60E9446
:104B30008A17D0CF883909F48CC038F5883729F026
:104B400050F4883611F0803729F683E08093AC0268
:104B50001092760257C0883809F47BC0803919F06A
:104B6000803809F0B7CF80917602803208F071C0AA
:104B7000E091760281E08E0F809376028091BB00F7
:104B8000F0E0EA5AFD4F80833DC0803B39F0E0F40D
:104B9000803A09F479C0883A09F09CCF84E0809388
:104BA000AC021092550210925402E091A802F091CA
:104BB000A90209958091540281110FC081E0809370
:104BC00054021092340209C0803C09F4A6CF883CFC
:104BD00009F4A3CF883B09F07DCFE091550281E035
:104BE0008E0F80935502F0E0EC5CFD4F8081809346
:104BF000BB00909155028091540229C080919A0285
:104C00008093BB0085EC8093BC0064CF90919902A7
:104C100080919802981758F5E091990281E08E0FE3
:104C200080939902F0E0E858FD4F8081E9CFE09150
:104C3000990281E08E0F809399028091BB00F0E091
:104C4000E858FD4F808390919902809198029817BF
:104C5000C8F285E8D8CFE091990281E08E0F809369
:104C600099028091BB00F0E0E858FD4F808380916D
:104C7000AB0281115CCF81E08093AA0284EA809329
:104C8000BC001092AC0226CF85EC8093BC00109241
:104C9000AC0280917602803230F4E0917602F0E04E
:104CA000EA5AFD4F10826091760270E0E091A60210
:104CB000F091A70286E592E00995109276020ACF5C
:104CC0001092770234CFCF93DF93A2E0B6E0139631
:104CD0001C921E92129748EE53E060E070E014962A
:104CE0004D935D936D937C93179783E491E01196B8
:104CF0009C938E93EDE3F6E01382128220EF30E076
:104D00003583248380E491E09783868331872087ED
:104D100093878287168A158614861786168681E001
:104D2000858B848B2FEF3FEF338B228B318B208B46
:104D3000878B108E128E118E81E791E09183808394
:104D4000CEE0D6E08FEF898B8A8B8B8B8C8BB983EF
:104D5000A88387E090E00E944438FC0183E691E05C
:104D60009183808388E191E094838383D683C58394
:104D7000FD83EC8387E090E00E944438FC0185E5E8
:104D800091E09183808314821382D683C583FF834D
:104D9000EE83DF91CF910895CF93DF93CDB7DEB748
:104DA000C854D1090FB6F894DEBF0FBECDBF7894BA
:104DB00084B5826084BD84B5816084BD85B5826020
:104DC00085BD85B5816085BD80916E0081608093D1
:104DD0006E0010928100809181008260809381003A
:104DE000809181008160809381008091800081604A
:104DF000809380008091B10084608093B1008091A5
:104E0000B00081608093B00080917A0084608093CC
:104E10007A0080917A00826080937A0080917A0093
:104E2000816080937A0080917A00806880937A0014
:104E30001092C1000E945F1260E090E080E00E944A
:104E40008B12883024E5920729F49093B002809366
:104E5000AF0233C0803234E59307B9F389389948FB
:104E600019F489E892E1F1CF60E087E690E00E94D2
:104E70008B128734974419F487E493E8E6CF81EAEC
:104E800090E00E940E13613081E6780719F483E602
:104E900099E1DBCF6F3F7F4F19F486E295E1D5CFE3
:104EA0008FEB90E00E94DA129B016735A3E87A0746
:104EB000B9F57093B0026093AF020091AF02109108
:104EC000B0020E945F121092590610925806109379
:104ED0005D0600935C060735E3E81E0709F4ABC5E1
:104EE00008F0CFC4053325E4120709F48EC508F095
:104EF00053C4003245E1140709F47BC508F021C40E
:104F0000043581E0180709F465C508F0B7C0093910
:104F1000110509F493C5109242061092410666C528
:104F20006138B4E97B0729F26131E5E17E0709F2D6
:104F300080E295E12032F5E13F0709F486CF263281
:104F400045E1340709F4A9CF213855E1350709F4C3
:104F5000B0CF2115344119F484E198E676CF84ED81
:104F600090E00E940E1380E193E56031734509F4EF
:104F70006CCF87ED90E00E940E1381E390E86133DF
:104F8000704809F462CF8FEE90E00E94DA1287E257
:104F900093E96732734909F458CF8EEF90E00E948D
:104FA0000E13672F782F892F992783E590E26335B9
:104FB000704209F44ACF84E090E00E940E139B01F6
:104FC00081112CC0611540E8740741F580913C01C6
:104FD00090913D01A0913E0189839A83AB83AE01FC
:104FE0004F5F5F4F63E089EB90E00E94A81160E0A3
:104FF00080ED90E00E948B12893929F08039F9F414
:1050000080E990E902C089E990E09093B002809332
:10501000AF02833D934D09F050CF27C0263255E1B2
:10502000350709F43ACF223585E8380719F489E8BD
:1050300097E70BCF21313C4A11F4CB0106CF83ED2A
:1050400090E00E940E13CB013DE6370F3230E8F2BC
:105050007839D9F27737C9F27631B9F2633D710503
:1050600009F4F3CE633D734D19F486E894E9EDCE6F
:1050700060E090E080E00E948B12C7CF0530A5E190
:105080001A0709F4F3C40131154109F044CF83E054
:1050900090E090935B0680935A0680EE91E09093A7
:1050A00044068093430680E491E090934206809307
:1050B0004106B3E0EB2EF12C0AEB18E120915B06E0
:1050C000822F82958F7090E08170992790935F0670
:1050D00080935E060115110581F069E070E087EFAD
:1050E00096E10E94D911B701C8010E94D91166E06A
:1050F00070E081EF96E10E94D91160E08DE396E0C7
:105100000E94421560E08DE396E00E944F1380916B
:105110005C0690915D068838944909F00AC11092A6
:10512000A40220EE3FEF50E040E070E060E08DE34D
:1051300096E00E940715F0906806E090690680915D
:105140005A0680FF03C0AEE2FA2EE12C10E000E028
:1051500030E020E050E040E070E060E08DE396E079
:105160000E94951380915A0680FD10C070E060E0A7
:1051700080916406909165060E94261270E060E0BE
:1051800080916606909167060E9426124398429885
:1051900085B18C7F9E2D9370892B85B98BB18370DF
:1051A0009E2D9C7F892B8BB94198419A85B18C7F2C
:1051B0009F2D9370892B85B98BB183709F2D9C7F18
:1051C000892B8BB94198419A429A84B18C7F84B9DA
:1051D0008AB183708AB920915A0630915B0680911A
:1051E0005C0690915D0626FD0EC0409A409840985E
:1051F000409843B149B1409A20FD05C08938F2E199
:105200009F0709F0B6C48131954139F4409A40981E
:105210004098409883B189B1409AB901647077276A
:10522000409A40984098409824FFC0C493B189B1F7
:1052300093708C7F982B409A409A40984098409861
:1052400043B189B143708C7F482B409A409A409873
:105250004098409883B1E9B083705E2D5C7F852BC8
:10526000409A50E0672B09F48CC4E82EF12CFE2CF8
:10527000EE24EE2488EFF822F3E0440F551FFA9550
:10528000E1F7407E5770E42AF52A96959695969513
:10529000E92A8091A402882399F0C70115E0969528
:1052A00087951A95E1F780729927A701569547953A
:1052B0004F715527842B952BB0ECEB22E82AF92A65
:1052C000409A439A84B1836084B98AB18C6F8AB959
:1052D00020FD14C0009147061091480601501109A5
:1052E00020914506309146062150310950E040E0BA
:1052F00070E060E08DE396E00E949513EFE1EE161A
:10530000EFEFFE06B1F486E08983AE014F5F5F4F99
:1053100061E08AE390E00E94A81180915A06909182
:105320005B068F7E90935B0680935A0681E08093A4
:10533000A40261E08DE396E00E94421570E060E017
:105340008DE396E00E94561F809156069091570675
:10535000892B49F480914B0690914C0606969093C8
:105360004C0680934B0682ED9DE190935706809307
:10537000560644E050E064E070E082E090E00E9475
:10538000561987E78093160680911F068F3F09F014
:105390003CC41092AE021092AD021092FF05109222
:1053A000FE051092AC0281E08093AB021092AA023B
:1053B00061E082E10E94E51061E083E10E94E51076
:1053C0008091B9008E7F8093B9008091B9008D7F64
:1053D0008093B90088E48093B80085E48093BC0092
:1053E0008DE890E19093A9028093A8028EE890E165
:1053F0009093A7028093A60280911F068F3F09F029
:1054000053C480910E0690910F062091160631E04C
:1054100030930106209300061092FF051092FE05BE
:10542000DC01ED91FC910190F081E02D60ED09959A
:1054300080910E0690910F060E94411841E0609104
:10544000160680910E0690910F060E949A1F809179
:105450000E0690910F06DC01ED91FC910284F3851C
:10546000E02D0995182F183509F062C088E80E94D0
:10547000E01F90932406809323068AE80E94E01F91
:1054800090932606809325068CE80E94E01F909357
:105490002806809327068EE80E94E01F90932A0634
:1054A0008093290680E90E94E01F90932C06809348
:1054B0002B0682E90E94E01F90932E0680932D0612
:1054C00084E90E94E01F9093300680932F0686E9BE
:1054D0000E94E01F909332068093310688E90E9473
:1054E000E01F90933406809333068AE90E94E01F00
:1054F00090933606809335068CE90E94E01F9093C6
:105500003806809337068EE90E94E01F90933A0692
:105510008093390650E040E070E060E085E090E084
:105520000E94561964E670E080E090E00E946911E4
:10553000F0EEEF2EF7E0FF2E04E010E02FED31E06B
:1055400050E040E070E060E08DE396E00E9445149A
:105550002FED31E04CE351E070E060E08DE396E048
:105560000E9445140FE311E024E030E044E050E0F5
:1055700070E060E08DE396E00E94451424E030E0A6
:1055800050E040E06BED71E08DE396E00E94451441
:1055900004E010E02BED31E042E450E070E060E028
:1055A0008DE396E00E9445140AEF10E022E030E01F
:1055B00046E450E062E470E08DE396E00E9445141A
:1055C00080EE9FEF9093500680934F0690934E0687
:1055D00080934D0681E08093510680935206AAE0A5
:1055E000EA2EF12CF0924A06E09249060EE110E014
:1055F00010934C0600934B0688EA91E00E947B23AF
:105600008CE890E090934A068093490610934C06EC
:1056100000934B068DEA91E00E947B23F0924A06AC
:10562000E09249068CE390E090934C0680934B0601
:1056300082EB91E00E947B2384E091E090934A0604
:105640008093490610934C0600934B0688EB91E03B
:105650000E947B238EE096E00E94792120E030E0DA
:1056600040E251E40E946A340E94DC342B011AAEFD
:1056700019AE10E000E01DAA1EAA1FAA18AE19AAB2
:105680001AAA1BAA1CAAFE0131963F019E012D5E9B
:105690003F4F3AA329A389A99AA9ABA9BCA9892BF1
:1056A0008A2B8B2B09F01EC30E949C1169AB7AAB2D
:1056B0008BAB9CAB8EE096E00E94792120E030E03D
:1056C00040E251E40E946A340E94DC34362F272FD6
:1056D0004091B3025091B402452B09F4E0C62091E9
:1056E000B1023091B202A9014F5F5F4F5093B202F5
:1056F0004093B102220F331FF901ED54FD4F718326
:1057000060834830510521F41092B2021092B10228
:10571000E3EBF2E080E090E0DC0121913191820F37
:10572000931FA11DB11D42E0E33CF407B1F733E044
:10573000B695A795979587953A95D1F7382F292F44
:10574000CEC60138E5E11E0709F4CAC180F406326D
:10575000154109F0E0CB83E194E090935B068093E0
:105760005A06FCE0EF2EF12C08EA18E1A7CC023033
:1057700036E1130709F4A8C187E194E1033510422B
:1057800009F0C9CB90935B0680935A0693E0E92E0B
:10579000F12C00E118E192CC033857E7150709F422
:1057A0003FC108F043C0083094E5190709F45EC111
:1057B000E0F40031134509F0AECB83E19EE0909315
:1057C0005B0680935A0680EE91E0909344068093A6
:1057D000430680E491E09093420680934106E2E024
:1057E000EE2EF12C06EA18E169CC0930E8E61E0736
:1057F00009F447C10431184609F08DCB83E094E0E9
:1058000090935B0680935A0680EE91E09093440655
:105810008093430680E491E0909342068093410692
:1058200073E0E72EF12C03EA18E148CC033927E7AF
:10583000120709F48BC180F40938174709F06BCBC4
:1058400083E194E090935B0680935A0661E4E62E30
:10585000F12C02E618E132CC063957E7150709F4B6
:105860005AC10133104809F056CB83E194E190937B
:105870005B0680935A0652E1E52EF12C00E518E113
:105880001DCC083393E9190709F424C108F045C079
:105890000732B3E91B0709F4FFC070F50230F3E9E2
:1058A0001F0709F414C1E0F483E194E100391049C1
:1058B00009F031CB90935B0680935A0680EE91E01D
:1058C000909344068093430680E491E090934206CF
:1058D0008093410642E0E42EF12C0EE418E1EECB79
:1058E000003243E9140709F4C1C00532134909F035
:1058F00012CB80E091E1C7C0093283E9180709F4AF
:10590000ECC0B8F30133A3E91A0721F005331349BA
:1059100009F001CB80E090E1B6C00938E4E91E0748
:10592000C8F50738F4E91F0708F00DC1013824E96C
:10593000120709F4EDC090F4005413490230110528
:1059400008F0E9CA83E194E090935B0680935A06DD
:1059500085E6E82EF12C0BEA17E1B0CB06381449A6
:1059600009F0D9CA83E094E090935B0680935A06CD
:1059700080EE91E0909344068093430680E491E0AA
:1059800090934206809341061BE3E12EF12C0BE23B
:1059900017E194CB053055EB150789F038F4013148
:1059A0001C4A09F0B8CA83E194E1ECCE0930A5EBBA
:1059B0001A0709F4CBC00530154C09F0ACCA88E0D1
:1059C00090E190935B0680935A0660EB70E08DE760
:1059D00099E10AC082E090E190935B0680935A06B9
:1059E0006CE970E08DEF9CE10E942D1310E000E067
:1059F00065CB83E194E090935B0680935A06A6E022
:105A0000EA2EF12C04EB18E159CB80E090E1909361
:105A10005B0680935A066CE970E081E69CE1E4CF76
:105A200082E091E190935B0680935A0660E970E012
:105A300081ED9BE1D9CF83E094E13CCF83E194E118
:105A400090935B0680935A0680EE91E09093440613
:105A50008093430680E491E0909342068093410650
:105A60003DE1E32EF12C01E318E128CB84E090E145
:105A700090935B0680935A0668ED70E089EF9AE197
:105A8000B3CF82E091E190935B0680935A066CEC71
:105A900070E08DE29AE1A8CF83E094E090935B06FA
:105AA00080935A0680E991E09093440680934306E0
:105AB00080EF90E090934206809341062EE1E22E23
:105AC000F12C03E118E1FACA83E195E05BCE83E0B3
:105AD00094E058CE83E194E055CE83E096E152CE37
